{
  "abi": [
    {
      "inputs": [
        {
          "internalType": "address",
          "name": "initialOwner",
          "type": "address"
        }
      ],
      "stateMutability": "nonpayable",
      "type": "constructor"
    },
    {
      "inputs": [
        {
          "internalType": "address",
          "name": "owner",
          "type": "address"
        }
      ],
      "name": "OwnableInvalidOwner",
      "type": "error"
    },
    {
      "inputs": [
        {
          "internalType": "address",
          "name": "account",
          "type": "address"
        }
      ],
      "name": "OwnableUnauthorizedAccount",
      "type": "error"
    },
    {
      "anonymous": false,
      "inputs": [
        {
          "indexed": true,
          "internalType": "address",
          "name": "previousOwner",
          "type": "address"
        },
        {
          "indexed": true,
          "internalType": "address",
          "name": "newOwner",
          "type": "address"
        }
      ],
      "name": "OwnershipTransferred",
      "type": "event"
    },
    {
      "inputs": [
        {
          "internalType": "uint256",
          "name": "item",
          "type": "uint256"
        }
      ],
      "name": "addClose",
      "outputs": [],
      "stateMutability": "nonpayable",
      "type": "function"
    },
    {
      "inputs": [
        {
          "internalType": "uint256",
          "name": "item",
          "type": "uint256"
        }
      ],
      "name": "addHigh",
      "outputs": [],
      "stateMutability": "nonpayable",
      "type": "function"
    },
    {
      "inputs": [
        {
          "internalType": "uint256",
          "name": "item",
          "type": "uint256"
        }
      ],
      "name": "addLow",
      "outputs": [],
      "stateMutability": "nonpayable",
      "type": "function"
    },
    {
      "inputs": [
        {
          "internalType": "uint256",
          "name": "item",
          "type": "uint256"
        }
      ],
      "name": "addMarketCap",
      "outputs": [],
      "stateMutability": "nonpayable",
      "type": "function"
    },
    {
      "inputs": [
        {
          "internalType": "uint256",
          "name": "item",
          "type": "uint256"
        }
      ],
      "name": "addOpen",
      "outputs": [],
      "stateMutability": "nonpayable",
      "type": "function"
    },
    {
      "inputs": [
        {
          "internalType": "uint256",
          "name": "item",
          "type": "uint256"
        }
      ],
      "name": "addVolume",
      "outputs": [],
      "stateMutability": "nonpayable",
      "type": "function"
    },
    {
      "inputs": [
        {
          "internalType": "uint256",
          "name": "value1",
          "type": "uint256"
        },
        {
          "internalType": "uint256",
          "name": "value2",
          "type": "uint256"
        }
      ],
      "name": "check_size",
      "outputs": [
        {
          "internalType": "uint256",
          "name": "",
          "type": "uint256"
        }
      ],
      "stateMutability": "pure",
      "type": "function"
    },
    {
      "inputs": [],
      "name": "generate_algo_array",
      "outputs": [],
      "stateMutability": "nonpayable",
      "type": "function"
    },
    {
      "inputs": [],
      "name": "getParams",
      "outputs": [
        {
          "internalType": "uint256[]",
          "name": "",
          "type": "uint256[]"
        },
        {
          "internalType": "uint256[]",
          "name": "",
          "type": "uint256[]"
        },
        {
          "internalType": "uint256[]",
          "name": "",
          "type": "uint256[]"
        },
        {
          "internalType": "uint256[]",
          "name": "",
          "type": "uint256[]"
        },
        {
          "internalType": "uint256[]",
          "name": "",
          "type": "uint256[]"
        },
        {
          "internalType": "uint256[]",
          "name": "",
          "type": "uint256[]"
        },
        {
          "internalType": "uint256",
          "name": "",
          "type": "uint256"
        },
        {
          "internalType": "uint256",
          "name": "",
          "type": "uint256"
        },
        {
          "internalType": "uint256",
          "name": "",
          "type": "uint256"
        },
        {
          "internalType": "uint256[]",
          "name": "",
          "type": "uint256[]"
        }
      ],
      "stateMutability": "view",
      "type": "function"
    },
    {
      "inputs": [
        {
          "internalType": "uint256",
          "name": "value",
          "type": "uint256"
        }
      ],
      "name": "normalize_between_zero_and_1e10",
      "outputs": [
        {
          "internalType": "uint256",
          "name": "",
          "type": "uint256"
        }
      ],
      "stateMutability": "pure",
      "type": "function"
    },
    {
      "inputs": [],
      "name": "owner",
      "outputs": [
        {
          "internalType": "address",
          "name": "",
          "type": "address"
        }
      ],
      "stateMutability": "view",
      "type": "function"
    },
    {
      "inputs": [],
      "name": "renounceOwnership",
      "outputs": [],
      "stateMutability": "nonpayable",
      "type": "function"
    },
    {
      "inputs": [],
      "name": "return_safeness_score",
      "outputs": [
        {
          "internalType": "uint256",
          "name": "",
          "type": "uint256"
        }
      ],
      "stateMutability": "view",
      "type": "function"
    },
    {
      "inputs": [
        {
          "internalType": "address",
          "name": "newOwner",
          "type": "address"
        }
      ],
      "name": "transferOwnership",
      "outputs": [],
      "stateMutability": "nonpayable",
      "type": "function"
    },
    {
      "inputs": [
        {
          "internalType": "uint256",
          "name": "item",
          "type": "uint256"
        }
      ],
      "name": "update_github_commits",
      "outputs": [],
      "stateMutability": "nonpayable",
      "type": "function"
    },
    {
      "inputs": [
        {
          "internalType": "uint256",
          "name": "item",
          "type": "uint256"
        }
      ],
      "name": "update_markets",
      "outputs": [],
      "stateMutability": "nonpayable",
      "type": "function"
    },
    {
      "inputs": [
        {
          "internalType": "uint256",
          "name": "item",
          "type": "uint256"
        }
      ],
      "name": "update_twitter_followers",
      "outputs": [],
      "stateMutability": "nonpayable",
      "type": "function"
    }
  ],
  "bytecode": {
    "object": "0x60806040523480156200001157600080fd5b50604051620010093803806200100983398101604081905262000034916200021f565b806001600160a01b0381166200006457604051631e4fbdf760e01b81526000600482015260240160405180910390fd5b6200006f8162000168565b5060408051600081526020810191829052516200008f91600191620001b8565b506040805160008152602081019182905251620000af91600291620001b8565b506040805160008152602081019182905251620000cf91600391620001b8565b506040805160008152602081019182905251620000ef91600491620001b8565b5060408051600081526020810191829052516200010f91600591620001b8565b5060408051600081526020810191829052516200012f91600691620001b8565b50600060078190556008819055600981905560408051918252602082019081905290516200016091600a91620001b8565b505062000251565b600080546001600160a01b038381166001600160a01b0319831681178455604051919092169283917f8be0079c531659141344cd1fd0a4f28419497f9722a3daafe3b4186f6b6457e09190a35050565b828054828255906000526020600020908101928215620001f6579160200282015b82811115620001f6578251825591602001919060010190620001d9565b506200020492915062000208565b5090565b5b8082111562000204576000815560010162000209565b6000602082840312156200023257600080fd5b81516001600160a01b03811681146200024a57600080fd5b9392505050565b610da880620002616000396000f3fe608060405234801561001057600080fd5b506004361061010b5760003560e01c806385d21419116100a2578063bfd26f9011610071578063bfd26f9014610206578063f01ca1af14610219578063f2fde38b14610221578063f68dcdef14610234578063f7ef3aea1461024757600080fd5b806385d21419146101bd5780638da5cb5b146101d0578063a470c467146101eb578063ade017d2146101f357600080fd5b80635e615a6b116100de5780635e615a6b14610171578063715018a61461018f578063780ee704146101975780637e0c166a146101aa57600080fd5b80630a7bdd5c1461011057806333dac8d5146101255780635504be851461014b5780635bf217881461015e575b600080fd5b61012361011e366004610b77565b61025a565b005b610138610133366004610b77565b61028c565b6040519081526020015b60405180910390f35b610138610159366004610b90565b6102aa565b61012361016c366004610b77565b6102c6565b6101796102df565b6040516101429a99989796959493929190610bed565b610123610564565b6101236101a5366004610b77565b610578565b6101236101b8366004610b77565b610591565b6101236101cb366004610b77565b6105aa565b6000546040516001600160a01b039091168152602001610142565b6101236105c3565b610123610201366004610b77565b6109d9565b610123610214366004610b77565b6109f6565b610138610a13565b61012361022f366004610c9e565b610a73565b610123610242366004610b77565b610ab3565b610123610255366004610b77565b610ad0565b610262610ae9565b6004610273826402540be400610ce4565b8154600181018355600092835260209092209091015550565b60005b6402540be40082106102a657600a8204915061028f565b5090565b6000818311156102bc575060016102c0565b5060005b92915050565b6102ce610ae9565b6003610273826402540be400610ce4565b60608060608060608060008060006060600160026003600460056006600754600854600954600a8980548060200260200160405190810160405280929190818152602001828054801561035157602002820191906000526020600020905b81548152602001906001019080831161033d575b50505050509950888054806020026020016040519081016040528092919081815260200182805480156103a357602002820191906000526020600020905b81548152602001906001019080831161038f575b50505050509850878054806020026020016040519081016040528092919081815260200182805480156103f557602002820191906000526020600020905b8154815260200190600101908083116103e1575b505050505097508680548060200260200160405190810160405280929190818152602001828054801561044757602002820191906000526020600020905b815481526020019060010190808311610433575b505050505096508580548060200260200160405190810160405280929190818152602001828054801561049957602002820191906000526020600020905b815481526020019060010190808311610485575b50505050509550848054806020026020016040519081016040528092919081815260200182805480156104eb57602002820191906000526020600020905b8154815260200190600101908083116104d7575b505050505094508080548060200260200160405190810160405280929190818152602001828054801561053d57602002820191906000526020600020905b815481526020019060010190808311610529575b50505050509050995099509950995099509950995099509950995090919293949596979899565b61056c610ae9565b6105766000610b16565b565b610580610ae9565b6006610273826402540be400610ce4565b610599610ae9565b6001610273826402540be400610ce4565b6105b2610ae9565b6005610273826402540be400610ce4565b60005b600180546105d49190610cfb565b8110156109d657600060046000815481106105f1576105f1610d0e565b9060005260206000200154600360008154811061061057610610610d0e565b9060005260206000200154111561067057600460008154811061063557610635610d0e565b9060005260206000200154600360008154811061065457610654610d0e565b90600052602060002001546106699190610cfb565b90506106bb565b600360008154811061068457610684610d0e565b906000526020600020015460046000815481106106a3576106a3610d0e565b90600052602060002001546106b89190610cfb565b90505b600060016000815481106106d1576106d1610d0e565b906000526020600020015460026000815481106106f0576106f0610d0e565b9060005260206000200154111561075057600160008154811061071557610715610d0e565b9060005260206000200154600260008154811061073457610734610d0e565b90600052602060002001546107499190610cfb565b905061079b565b600260008154811061076457610764610d0e565b9060005260206000200154600160008154811061078357610783610d0e565b90600052602060002001546107989190610cfb565b90505b6000816000036107b157506402540be4006107ce565b816107c1846402540be400610ce4565b6107cb9190610d24565b90505b6000610814600286815481106107e6576107e6610d0e565b90600052602060002001546001878154811061080457610804610d0e565b90600052602060002001546102aa565b610823906402540be400610ce4565b620186a06009546108349190610d24565b61083f906002610ce4565b61271060075461084f9190610d24565b61085a906001610ce4565b64174876e8006108b860056108708b6001610d46565b8154811061088057610880610d0e565b906000526020600020015460058b8154811061089e5761089e610d0e565b90600052602060002001546108b39190610cfb565b610b66565b6108c29190610d24565b6108d1906402540be400610cfb565b6108dc906002610ce4565b64174876e80061092060066108f28c6001610d46565b8154811061090257610902610d0e565b906000526020600020015460068c8154811061089e5761089e610d0e565b61092a9190610d24565b610939906402540be400610cfb565b610944906002610ce4565b61094d8761028c565b610958906002610ce4565b6109629190610d46565b61096c9190610d46565b6109769190610d46565b6109809190610d46565b61098a9190610d46565b600a80546001810182556000919091527fc65a7bb8d6351c1cf70c95a316cc6a92839c986682d98bc35f958f4883f9d2a80155508392506109ce9150829050610d59565b9150506105c6565b50565b6109e1610ae9565b6109f0816402540be400610ce4565b60085550565b6109fe610ae9565b610a0d816402540be400610ce4565b60075550565b600080805b600a54811015610a5f57600a8181548110610a3557610a35610d0e565b906000526020600020015482610a4b9190610d46565b915080610a5781610d59565b915050610a18565b50600a54610a6d9082610d24565b91505090565b610a7b610ae9565b6001600160a01b038116610aaa57604051631e4fbdf760e01b8152600060048201526024015b60405180910390fd5b6109d681610b16565b610abb610ae9565b610aca816402540be400610ce4565b60095550565b610ad8610ae9565b6002610273826402540be400610ce4565b6000546001600160a01b031633146105765760405163118cdaa760e01b8152336004820152602401610aa1565b600080546001600160a01b038381166001600160a01b0319831681178455604051919092169283917f8be0079c531659141344cd1fd0a4f28419497f9722a3daafe3b4186f6b6457e09190a35050565b6000808212156102a6575060000390565b600060208284031215610b8957600080fd5b5035919050565b60008060408385031215610ba357600080fd5b50508035926020909101359150565b600081518084526020808501945080840160005b83811015610be257815187529582019590820190600101610bc6565b509495945050505050565b6000610140808352610c018184018e610bb2565b90508281036020840152610c15818d610bb2565b90508281036040840152610c29818c610bb2565b90508281036060840152610c3d818b610bb2565b90508281036080840152610c51818a610bb2565b905082810360a0840152610c658189610bb2565b90508660c08401528560e084015284610100840152828103610120840152610c8d8185610bb2565b9d9c50505050505050505050505050565b600060208284031215610cb057600080fd5b81356001600160a01b0381168114610cc757600080fd5b9392505050565b634e487b7160e01b600052601160045260246000fd5b80820281158282048414176102c0576102c0610cce565b818103818111156102c0576102c0610cce565b634e487b7160e01b600052603260045260246000fd5b600082610d4157634e487b7160e01b600052601260045260246000fd5b500490565b808201808211156102c0576102c0610cce565b600060018201610d6b57610d6b610cce565b506001019056fea2646970667358221220fc787ce931b2e72d930f8c7ba01aeefc99cc4cc3ac748f283445b9f81548b31f64736f6c63430008140033",
    "linkReferences": {}
  },
  "methodIdentifiers": {
    "addClose(uint256)": "f7ef3aea",
    "addHigh(uint256)": "5bf21788",
    "addLow(uint256)": "0a7bdd5c",
    "addMarketCap(uint256)": "780ee704",
    "addOpen(uint256)": "7e0c166a",
    "addVolume(uint256)": "85d21419",
    "check_size(uint256,uint256)": "5504be85",
    "generate_algo_array()": "a470c467",
    "getParams()": "5e615a6b",
    "normalize_between_zero_and_1e10(uint256)": "33dac8d5",
    "owner()": "8da5cb5b",
    "renounceOwnership()": "715018a6",
    "return_safeness_score()": "f01ca1af",
    "transferOwnership(address)": "f2fde38b",
    "update_github_commits(uint256)": "f68dcdef",
    "update_markets(uint256)": "bfd26f90",
    "update_twitter_followers(uint256)": "ade017d2"
  },
  "id": 4
}