{
  "abi": [
    {
      "inputs": [
        {
          "internalType": "address",
          "name": "initialOwner",
          "type": "address"
        }
      ],
      "stateMutability": "nonpayable",
      "type": "constructor"
    },
    {
      "inputs": [
        {
          "internalType": "address",
          "name": "owner",
          "type": "address"
        }
      ],
      "name": "OwnableInvalidOwner",
      "type": "error"
    },
    {
      "inputs": [
        {
          "internalType": "address",
          "name": "account",
          "type": "address"
        }
      ],
      "name": "OwnableUnauthorizedAccount",
      "type": "error"
    },
    {
      "anonymous": false,
      "inputs": [
        {
          "indexed": true,
          "internalType": "address",
          "name": "previousOwner",
          "type": "address"
        },
        {
          "indexed": true,
          "internalType": "address",
          "name": "newOwner",
          "type": "address"
        }
      ],
      "name": "OwnershipTransferred",
      "type": "event"
    },
    {
      "inputs": [
        {
          "internalType": "uint256",
          "name": "item",
          "type": "uint256"
        }
      ],
      "name": "addClose",
      "outputs": [],
      "stateMutability": "nonpayable",
      "type": "function"
    },
    {
      "inputs": [
        {
          "internalType": "uint256",
          "name": "item",
          "type": "uint256"
        }
      ],
      "name": "addHigh",
      "outputs": [],
      "stateMutability": "nonpayable",
      "type": "function"
    },
    {
      "inputs": [
        {
          "internalType": "uint256",
          "name": "item",
          "type": "uint256"
        }
      ],
      "name": "addLow",
      "outputs": [],
      "stateMutability": "nonpayable",
      "type": "function"
    },
    {
      "inputs": [
        {
          "internalType": "uint256",
          "name": "item",
          "type": "uint256"
        }
      ],
      "name": "addMarketCap",
      "outputs": [],
      "stateMutability": "nonpayable",
      "type": "function"
    },
    {
      "inputs": [
        {
          "internalType": "uint256",
          "name": "item",
          "type": "uint256"
        }
      ],
      "name": "addOpen",
      "outputs": [],
      "stateMutability": "nonpayable",
      "type": "function"
    },
    {
      "inputs": [
        {
          "internalType": "uint256",
          "name": "item",
          "type": "uint256"
        }
      ],
      "name": "addVolume",
      "outputs": [],
      "stateMutability": "nonpayable",
      "type": "function"
    },
    {
      "inputs": [
        {
          "internalType": "uint256",
          "name": "value1",
          "type": "uint256"
        },
        {
          "internalType": "uint256",
          "name": "value2",
          "type": "uint256"
        }
      ],
      "name": "check_size",
      "outputs": [
        {
          "internalType": "uint256",
          "name": "",
          "type": "uint256"
        }
      ],
      "stateMutability": "pure",
      "type": "function"
    },
    {
      "inputs": [],
      "name": "generate_algo_array",
      "outputs": [],
      "stateMutability": "nonpayable",
      "type": "function"
    },
    {
      "inputs": [],
      "name": "getParams",
      "outputs": [
        {
          "internalType": "uint256[]",
          "name": "",
          "type": "uint256[]"
        },
        {
          "internalType": "uint256[]",
          "name": "",
          "type": "uint256[]"
        },
        {
          "internalType": "uint256[]",
          "name": "",
          "type": "uint256[]"
        },
        {
          "internalType": "uint256[]",
          "name": "",
          "type": "uint256[]"
        },
        {
          "internalType": "uint256[]",
          "name": "",
          "type": "uint256[]"
        },
        {
          "internalType": "uint256[]",
          "name": "",
          "type": "uint256[]"
        },
        {
          "internalType": "uint256",
          "name": "",
          "type": "uint256"
        },
        {
          "internalType": "uint256",
          "name": "",
          "type": "uint256"
        },
        {
          "internalType": "uint256",
          "name": "",
          "type": "uint256"
        },
        {
          "internalType": "uint256[]",
          "name": "",
          "type": "uint256[]"
        }
      ],
      "stateMutability": "view",
      "type": "function"
    },
    {
      "inputs": [
        {
          "internalType": "uint256",
          "name": "value",
          "type": "uint256"
        }
      ],
      "name": "normalize_between_zero_and_1e10",
      "outputs": [
        {
          "internalType": "uint256",
          "name": "",
          "type": "uint256"
        }
      ],
      "stateMutability": "pure",
      "type": "function"
    },
    {
      "inputs": [],
      "name": "owner",
      "outputs": [
        {
          "internalType": "address",
          "name": "",
          "type": "address"
        }
      ],
      "stateMutability": "view",
      "type": "function"
    },
    {
      "inputs": [],
      "name": "renounceOwnership",
      "outputs": [],
      "stateMutability": "nonpayable",
      "type": "function"
    },
    {
      "inputs": [],
      "name": "return_safeness_score",
      "outputs": [
        {
          "internalType": "uint256",
          "name": "",
          "type": "uint256"
        }
      ],
      "stateMutability": "view",
      "type": "function"
    },
    {
      "inputs": [
        {
          "internalType": "address",
          "name": "newOwner",
          "type": "address"
        }
      ],
      "name": "transferOwnership",
      "outputs": [],
      "stateMutability": "nonpayable",
      "type": "function"
    },
    {
      "inputs": [
        {
          "internalType": "uint256",
          "name": "item",
          "type": "uint256"
        }
      ],
      "name": "update_github_commits",
      "outputs": [],
      "stateMutability": "nonpayable",
      "type": "function"
    },
    {
      "inputs": [
        {
          "internalType": "uint256",
          "name": "item",
          "type": "uint256"
        }
      ],
      "name": "update_markets",
      "outputs": [],
      "stateMutability": "nonpayable",
      "type": "function"
    },
    {
      "inputs": [
        {
          "internalType": "uint256",
          "name": "item",
          "type": "uint256"
        }
      ],
      "name": "update_twitter_followers",
      "outputs": [],
      "stateMutability": "nonpayable",
      "type": "function"
    }
  ],
  "bytecode": {
    "object": "0x60806040523480156200001157600080fd5b5060405162004bc238038062004bc2833981016040819052620000349162003dd8565b806001600160a01b0381166200006457604051631e4fbdf760e01b81526000600482015260240160405180910390fd5b6200006f8162003c91565b506040805161186081018252640315ff578e81526402f667cbe660208201526402d9a1792f918101919091526402fc71203760608201526402b51d85dd60808201526402d5f55d9a60a08201526402d9d7e27760c0820152640335a7d84d60e082015264033eb0819961010082015264030366efaf6101208201526402cb96cf4e6101408201526402b102388d6101608201526402e01056a16101808201526402e541e4266101a08201526402d31cb0126101c08201526402c9af0f966101e08201526402b5127a556102008201526402c1a07e826102208201526402e4cba18e6102408201526402d5d9ab5c6102608201526402c7dbf7ad61028082015264032e789d396102a08201526403ee0c0a606102c08201526403d728b6ad6102e08201526403f4949b7c6103008201526403c14cff636103208201526403e513717461034082015264037834631961036082015264035aa3b12c61038082015264036c6967436103a08201526403687a4e016103c082015264031e3966f66103e082015264031daffb6b6104008201526403360dbbda6104208201526403395f002f6104408201526403502d2e796104608201526403380eebe061048082015264032ea407a46104a08201526403314694bf6104c08201526403122ba95e6104e0820152640324ab93c2610500820152640321118635610520820152640311524ad0610540820152640328efb2ee6105608201526402e50f90476105808201526402db3e54546105a082015264028b97b0646105c0820152640291965d6d6105e08201526402bb5a587261060082015264028acf14706106208201526402ba7d600a6106408201526402b9e97fc96106608201526402bb4fcf1e6106808201526402c74d11046106a08201526402bed3732d6106c08201526402cae6780f6106e08201526402b16d95b46107008201526402b55103b86107208201526402b54001cc6107408201526402a01579f561076082015264029ef544d56107808201526402b79381286107a0820152640295bdf95b6107c0820152640293cae53d6107e08201526402b3e1ebb46108008201526402bb54a3ae6108208201526402e7c910016108408201526402db69fd1c6108608201526402d87559d66108808201526402b47796196108a08201526402aba3421e6108c08201526402e35c37446108e08201526402d4813c8d6109008201526402d1b5360a6109208201526402a615d6ee6109408201526402c350e56561096082015264029f41d76a6109808201526402a18742946109a08201526402a20491ee6109c082015264024fc4c9356109e082015264024f31ee0a610a00820152640246f36481610a2082015264024e82979d610a408201526402310a322e610a60820152640235a7830a610a80820152640244ff7e6c610aa08201526402502f3eab610ac082015264025088b3f1610ae0820152640257f1a2e8610b008201526402863c35b6610b208201526402a8661f98610b4082015264028a18b377610b608201526402a43247d0610b808201526402831da06a610ba0820152640296b48e2d610bc08201526402a835e57f610be08201526402ceda712f610c0082015264029dddfe8f610c208201526402a1947cfd610c408201526402b3b5a3c4610c608201526402ad95e587610c808201526402ade60132610ca08201526402b77f9a87610cc08201526402ad2d7fad610ce082015264029652eca1610d008201526402816a64c1610d208201526402a1c92703610d4082015264029eede6b0610d6082015264029e4f65c3610d8082015264029c7d901b610da082015264029eb940c1610dc082015264029c72c2bf610de08201526402d98b2f8d610e008201526402d191aebf610e208201526402f3b1bc14610e408201526402f5d36e96610e60820152640308276020610e808201526402e56201f8610ea08201526402f3ea2b80610ec08201526402ef674247610ee08201526402e1273648610f008201526402da862cd9610f208201526402e9a41851610f408201526402c37dcc66610f608201526402b8a07872610f808201526402c97b2cea610fa08201526402bad7d040610fc08201526402bc17323c610fe08201526402c0a861aa6110008201526402b244fb406110208201526402b88518a56110408201526402b38a4cdf6110608201526402a316684b6110808201526402a100be2b6110a08201526402b0b30c9d6110c08201526402a5bae7096110e08201526402a571faf56111008201526402a3a3379d6111208201526402b39be9b06111408201526402bcb803346111608201526402b314b1406111808201526402b1f555a26111a08201526402b53566c56111c08201526402aa1f67c76111e08201526402a8460bf16112008201526402a184f6a86112208201526402705feaa061124082015264024b5f2a206112608201526402581047a361128082015264026003d2586112a082015264026626de656112c08201526402520198ef6112e0820152640247e8433f611300820152640258ef8d016113208201526402483560fc611340820152640235076466611360820152640236784cb261138082015264023adefbf06113a082015264023569f66f6113c0820152640242de5afb6113e08201526402322d3c06611400820152640221a7d5ed61142082015264020f2463cd6114408201526402115dc7b661146082015264021b370a7e6114808201526402160b1c6c6114a082015264021900e2676114c082015264021919f64e6114e082015264021fade7c961150082015264021993b97f6115208201526402179e39c06115408201526401f72a50d46115608201526401c5a3fe7a6115808201526401d2f8b1456115a08201526401d4cb64996115c08201526401df6f6c7d6115e08201526401e1c0827a6116008201526401ed2e8d176116208201526401d99b6bae6116408201526401eb6c2bce61166082015264020137b0a561168082015264020038dbca6116a08201526401eaa1a6306116c08201526401f5160ccb6116e08201526401e9b8d0526117008201526401e1d9bc5a6117208201526401e10e5eb36117408201526401ebc4af706117608201526401e74f8993611780820152640213264d9c6117a082015264021a6515fb6117c082015264021d7ccee76117e0820152640242074c1061180082015264022b1d341061182082015264021c1ebea2611840820152620009a69060019060c362003ce1565b5060408051611860810182526402c2f25ccc81526402c710d39260208201526402d0142d8c9181019190915264029e40505c606082015264029bddd4a860808201526402cc669a7f60a08201526402d9d7e27760c08201526403203e671e60e08201526402f47d5c2c6101008201526402a86937b9610120820152640297a3b1576101408201526402ae3811f06101608201526402d2facd5e6101808201526402c2ae61ec6101a08201526402c2b26bd96101c08201526402b1ca8ca16101e08201526402aef3221c6102008201526402b6fd81666102208201526402d2fb602f6102408201526402b7141af66102608201526402c1dab6b561028082015264032e789d396102a08201526403c866a6056102c08201526403b85e066a6102e08201526403b88c1aca6103008201526403b842c17e61032082015264036bd2792a61034082015264034956301e61036082015264034d6e4b9c610380820152640356891c746103a08201526403106ad2a66103c082015264030320f5c36103e08201526403071e5ab261040082015264031f6cc4d5610420820152640337f0a4bf610440820152640330244b0a610460820152640327679d2261048082015264032595e1786104a082015264030640189f6104c082015264030dc349d26104e0820152640308987bfe61050082015264030ea63f82610520820152640309bccb1c6105408201526402dafe0cf06105608201526402db080f09610580820152640276b00d4c6105a082015264028526165e6105c0820152640290b686c76105e082015264027a6da67661060082015264027d4eab1b6106208201526402ac2c5a2b6106408201526402ad198ce76106608201526402b059dae26106808201526402b83c309b6106a08201526402a78d1d256106c08201526402aa5c40bb6106e08201526402ab63c9386107008201526402afe4ea0661072082015264029c57a9f8610740820152640297209a9861076082015264029c88237461078082015264028a6e667c6107a082015264028176e90c6107c0820152640293068bb26107e08201526402b0a2e3bc6108008201526402b83d9c146108208201526402d4d438bc6108408201526402d4f097da6108608201526402aacc7b0f6108808201526402a543fde06108a08201526402a7ff6f016108c08201526402d13c59316108e08201526402ceb2fddc610900820152640289cd04e8610920820152640298c5af3761094082015264029cc59801610960820152640296c2518d61098082015264029c4f6caa6109a08201526402357fcbe86109c082015264024886b6676109e082015264023cb316f8610a0082015264024335d0c7610a208201526402296ef5ca610a40820152640220e1ba96610a6082015264022a20039e610a808201526402417eccad610aa082015264024b553960610ac082015264024d3a2dfe610ae082015264024ca49c94610b0082015264028338572a610b20820152640288dad4d2610b40820152640289f2903f610b6082015264027b62a162610b80820152640281711fc4610ba0820152640288879b3e610bc08201526402a7ad86ea610be082015264029bcba495610c0082015264029d4ca019610c20820152640291782cfb610c408201526402a71ba3ab610c608201526402a06bd1a5610c808201526402adc2af9a610ca08201526402ad1870ca610cc082015264028f3727af610ce0820152640281ae69e5610d0082015264027aee9ca8610d2082015264029801fd81610d4082015264029d69c692610d608201526402917e9e11610d8082015264029804b7ec610da08201526402986d6ccc610dc0820152640297f1c58e610de08201526402bc4d719b610e008201526402cfca9658610e208201526402e8fcd735610e408201526402eead86e1610e608201526402e0bd24d2610e808201526402e1702277610ea08201526402e73361f0610ec08201526402e135d63a610ee08201526402d825362e610f008201526402d871397f610f208201526402bc80715c610f408201526402b4fa007d610f608201526402b0e49827610f808201526402ba15681a610fa08201526402b33a2f50610fc08201526402bb0a3c04610fe08201526402ad398a126110008201526402b09de1ec6110208201526402a1f2e3ff6110408201526402a0fbfc4761106082015264029ce487ef6110808201526402a0d47a736110a08201526402a4effd836110c08201526402a1f681486110e0820152640298c85cab6111008201526402a2a0fa096111208201526402b38320496111408201526402b18ee34e6111608201526402aedfa4186111808201526402b09b31736111a08201526402a9b1bec96111c08201526402a4f81eb86111e082015264029f518e47611200820152640269195a00611220820152640235d8a993611240820152640249cdd44961126082015264025791af6661128082015264025eb740fe6112a082015264024b681c8a6112c08201526402351e71766112e08201526402473696ee6113008201526402414b2ab561132082015264022d2f51cb61134082015264022ffb716961136082015264023469bb526113808201526402293ee2c46113a082015264022d4c24a06113c0820152640230d21aca6113e082015264021d53714661140082015264020a406c1f61142082015264020b9214e061144082015264020d90fe3361146082015264021052cf2161148082015264020f7e47b96114a082015264020edcb3b66114c08201526402173bdf0d6114e082015264021582c0a661150082015264021685f1686115208201526401f1ba874e6115408201526401bc41feea6115608201526401c207d0ea6115808201526401ce599da66115a08201526401d3a446066115c08201526401d52b35b86115e08201526401e16d89e86116008201526401d55aaab36116208201526401d549fe6e6116408201526401e95710f16116608201526401f38eb8116116808201526401e4b26f7f6116a08201526401e7ef41da6116c08201526401e8908b536116e08201526401e1820bc16117008201526401dfce3bc36117208201526401e0c0ee576117408201526401e520384f6117608201526401e6eadb7161178082015264020f0a22716117a0820152640214ed8c1d6117c082015264021d5997396117e08201526402252bf28b61180082015264021a7fecaa61182082015264020661fdf8611840820152620012dd9060029060c362003ce1565b50604080516118608101825264039f5f479c815264030b2bbd1c602082015264031fce8e7f91810191909152640312f1fa7d60608201526402d776dc0a60808201526402f60e149460a082015264034d8ad77560c082015264035731e6c860e08201526403432b661761010082015264030525991b6101208201526402d9be76d76101408201526402f05a04e16101608201526402fde3eacf6101808201526402e59d8d416101a08201526402e47e01f86101c08201526402d035a22d6101e08201526402c769f8b16102008201526402e7d53f096102208201526402eab0be3a6102408201526402d62fdc9f610260820152640331b6db15610280820152640400e635b36102a0820152640408f9a3856102c08201526403f9c4aec66102e08201526403f4949b7c6103008201526404318cc0d46103208201526403ed3e2a516103408201526403935d4a7e61036082015264037b21e21761038082015264037bfb06666103a08201526403688c4aea6103c082015264032b9c54ed6103e08201526403372b42e761040082015264037ae0d91761042082015264035f95e699610440820152640359cf1d9b61046082015264033e581c4061048082015264034e4c311b6104a082015264033874d1416104c08201526403285475b46104e082015264032a6fec0761050082015264032ad202a161052082015264032bafb94f61054082015264032d8a70d66105608201526402ee4e92886105808201526402dbf9f4866105a0820152640296bbb6d16105c08201526402c8a4f1b96105e08201526402bb5a58726106008201526402bad79fc76106208201526402c3a060716106408201526402cbf4dfbb6106608201526402daa7b3fe6106808201526402cefb54936106a08201526402d017ad456106c08201526402d06886186106e08201526402b91fbea86107008201526402b80383df6107208201526402b90cc00d6107408201526402a50e19506107608201526402bd28c77a6107808201526402b7a1b4086107a082015264029716364d6107c08201526402bd1c4ddc6107e08201526402bcee2a576108008201526402ea25fe476108208201526402f56fa11a6108408201526402e4b3bda76108608201526402de8332736108808201526402b6ec80f16108a08201526402e97ac2f06108c08201526402e9f5253b6108e08201526402de3da27e6109008201526402d1b5360a6109208201526402c880ab576109408201526402c6611cb96109608201526402ab31549b6109808201526402ad561b8e6109a08201526402a2cb7c966109c082015264025c9589956109e08201526402514cd271610a008201526402643e90a0610a208201526402573dcaf7610a40820152640239c0337c610a60820152640248f48863610a80820152640258c8d632610aa08201526402608727f1610ac082015264025beaf4e6610ae0820152640286cdcef6610b008201526402ab73caff610b208201526402ba8e4d5f610b408201526402af9fa0c5610b608201526402a479e912610b808201526402a3039a09610ba08201526402b824694a610bc08201526402e24a469d610be08201526402ceec0d0f610c008201526402b57806ac610c208201526402c6616324610c408201526402b6d61a50610c608201526402b2b50f78610c808201526402bff5834d610ca08201526402c67a3753610cc08201526402b02ac94b610ce08201526402a7d00d85610d008201526402a1ae461f610d208201526402aa10eb30610d408201526402a70e4584610d608201526402a7c30609610d808201526402a2b9615e610da08201526402a601ecd5610dc08201526402e376daa1610de082015264031061bbef610e00820152640312633dac610e20820152640308abe49d610e4082015264031fe3eb2c610e60820152640315e3d1b4610e808201526403014fd931610ea08201526402fa8c2515610ec08201526403028e8f97610ee08201526402e92df4a7610f008201526402f24ea39b610f208201526402eaa7b90b610f408201526402c6df10f6610f608201526402cc59c68d610f808201526402ce716241610fa08201526402be92eb21610fc08201526402c1157e29610fe08201526402c35899566110008201526402c4a184bf6110208201526402bb8c5cec6110408201526402baa952146110608201526402ac0674866110808201526402b54e24f16110a08201526402b133324a6110c08201526402aa8bd6de6110e08201526402adf8fb2d6111008201526402b9f664c66111208201526402c5587a7a6111408201526402c31f0bb16111608201526402b50ddfea6111808201526402b6eb23586111a08201526402b73027976111c08201526402ade87c046111e08201526402b3f77a9a6112008201526402a339f686611220820152640278d2bd4361124082015264026148636c61126082015264026652360e61128082015264026b2cf5a76112a0820152640267738c736112c0820152640255ba00886112e082015264026271147261130082015264025bb05c7461132082015264024837218a611340820152640237c29a5561136082015264023e347f1561138082015264023b7415776113a082015264024f5515b36113c08201526402433530f46113e082015264023a2e0077611400820152640228a2ce126114208201526402146a369e61144082015264021cca9079611460820152640226bee73561148082015264021e33674f6114a082015264021d8e88c06114c0820152640223a8a84a6114e0820152640224cfcf5a611500820152640219e8c12a611520820152640217a370806115408201526401f8d375216115608201526401db3261ca6115808201526401e51bc11a6115a08201526401e5ca60d86115c08201526401e42c45256115e08201526401f05df30b6116008201526401ed5164996116208201526401f397d9e7611640820152640201350a7061166082015264020528db6a6116808201526402021e3a766116a08201526401f82fb4af6116c08201526401f8d5fb5d6116e08201526401ef060e296117008201526401e76e2c3d6117208201526401ebc10ac46117408201526401f62d26d26117608201526402173b5a8961178082015264021f7784d76117a0820152640225c0f0f56117c08201526402478d8ce16117e082015264024ab15393611800820152640231c0388561182082015264021c698eab61184082015262001c149060039060c362003ce1565b5060408051611860810182526402c2f25ccc81526402c710d39260208201526402d0142d8c9181019190915264029e40505c606082015264029bddd4a860808201526402cc669a7f60a08201526402d9d7e27760c08201526403203e671e60e08201526402f47d5c2c6101008201526402a86937b9610120820152640297a3b1576101408201526402ae3811f06101608201526402d2facd5e6101808201526402c2ae61ec6101a08201526402c2b26bd96101c08201526402b1ca8ca16101e08201526402aef3221c6102008201526402b6fd81666102208201526402d2fb602f6102408201526402b7141af66102608201526402c1dab6b561028082015264032e789d396102a08201526403c866a6056102c08201526403b85e066a6102e08201526403b88c1aca6103008201526403b842c17e61032082015264036bd2792a61034082015264034956301e61036082015264034d6e4b9c610380820152640356891c746103a08201526403106ad2a66103c082015264030320f5c36103e08201526403071e5ab261040082015264031f6cc4d5610420820152640337f0a4bf610440820152640330244b0a610460820152640327679d2261048082015264032595e1786104a082015264030640189f6104c082015264030dc349d26104e0820152640308987bfe61050082015264030ea63f82610520820152640309bccb1c6105408201526402dafe0cf06105608201526402db080f09610580820152640276b00d4c6105a082015264028526165e6105c0820152640290b686c76105e082015264027a6da67661060082015264027d4eab1b6106208201526402ac2c5a2b6106408201526402ad198ce76106608201526402b059dae26106808201526402b83c309b6106a08201526402a78d1d256106c08201526402aa5c40bb6106e08201526402ab63c9386107008201526402afe4ea0661072082015264029c57a9f8610740820152640297209a9861076082015264029c88237461078082015264028a6e667c6107a082015264028176e90c6107c0820152640293068bb26107e08201526402b0a2e3bc6108008201526402b83d9c146108208201526402d4d438bc6108408201526402d4f097da6108608201526402aacc7b0f6108808201526402a543fde06108a08201526402a7ff6f016108c08201526402d13c59316108e08201526402ceb2fddc610900820152640289cd04e8610920820152640298c5af3761094082015264029cc59801610960820152640296c2518d61098082015264029c4f6caa6109a08201526402357fcbe86109c082015264024886b6676109e082015264023cb316f8610a0082015264024335d0c7610a208201526402296ef5ca610a40820152640220e1ba96610a6082015264022a20039e610a808201526402417eccad610aa082015264024b553960610ac082015264024d3a2dfe610ae082015264024ca49c94610b0082015264028338572a610b20820152640288dad4d2610b40820152640289f2903f610b6082015264027b62a162610b80820152640281711fc4610ba0820152640288879b3e610bc08201526402a7ad86ea610be082015264029bcba495610c0082015264029d4ca019610c20820152640291782cfb610c408201526402a71ba3ab610c608201526402a06bd1a5610c808201526402adc2af9a610ca08201526402ad1870ca610cc082015264028f3727af610ce0820152640281ae69e5610d0082015264027aee9ca8610d2082015264029801fd81610d4082015264029d69c692610d608201526402917e9e11610d8082015264029804b7ec610da08201526402986d6ccc610dc0820152640297f1c58e610de08201526402bc4d719b610e008201526402cfca9658610e208201526402e8fcd735610e408201526402eead86e1610e608201526402e0bd24d2610e808201526402e1702277610ea08201526402e73361f0610ec08201526402e135d63a610ee08201526402d825362e610f008201526402d871397f610f208201526402bc80715c610f408201526402b4fa007d610f608201526402b0e49827610f808201526402ba15681a610fa08201526402b33a2f50610fc08201526402bb0a3c04610fe08201526402ad398a126110008201526402b09de1ec6110208201526402a1f2e3ff6110408201526402a0fbfc4761106082015264029ce487ef6110808201526402a0d47a736110a08201526402a4effd836110c08201526402a1f681486110e0820152640298c85cab6111008201526402a2a0fa096111208201526402b38320496111408201526402b18ee34e6111608201526402aedfa4186111808201526402b09b31736111a08201526402a9b1bec96111c08201526402a4f81eb86111e082015264029f518e47611200820152640269195a00611220820152640235d8a993611240820152640249cdd44961126082015264025791af6661128082015264025eb740fe6112a082015264024b681c8a6112c08201526402351e71766112e08201526402473696ee6113008201526402414b2ab561132082015264022d2f51cb61134082015264022ffb716961136082015264023469bb526113808201526402293ee2c46113a082015264022d4c24a06113c0820152640230d21aca6113e082015264021d53714661140082015264020a406c1f61142082015264020b9214e061144082015264020d90fe3361146082015264021052cf2161148082015264020f7e47b96114a082015264020edcb3b66114c08201526402173bdf0d6114e082015264021582c0a661150082015264021685f1686115208201526401f1ba874e6115408201526401bc41feea6115608201526401c207d0ea6115808201526401ce599da66115a08201526401d3a446066115c08201526401d52b35b86115e08201526401e16d89e86116008201526401d55aaab36116208201526401d549fe6e6116408201526401e95710f16116608201526401f38eb8116116808201526401e4b26f7f6116a08201526401e7ef41da6116c08201526401e8908b536116e08201526401e1820bc16117008201526401dfce3bc36117208201526401e0c0ee576117408201526401e520384f6117608201526401e6eadb7161178082015264020f0a22716117a0820152640214ed8c1d6117c082015264021d5997396117e08201526402252bf28b61180082015264021a7fecaa61182082015264020661fdf86118408201526200254b9060049060c362003ce1565b5060408051611860810182526801602d8e2ef9036000815267b3b3e28873690800602082015267930c20583a1b180091810191909152678cc1108cfa8bd00060608201526760ad7df716816c006080820152676dccc37c1c395c0060a08201526801022c11d69029b00060c0820152678e0b5e49cd53580060e08201526762454a9a7186040061010082015267932896b7c6a95000610120820152677e4db8a4655730006101408201526766f1d3cd3103b400610160820152675e9512e178dffc006101808201526736130089882114006101a0820152672df7ce2944f24c006101c082015267210d24ebd77bf6006101e08201526722d2892753b6b40061020082015267365e281cb3d22800610220820152672dbaf2d221db1a00610240820152672fccbefc55140c00610260820152679243db3207a2080061028082015268019649db25f0de60006102a082015267d7782c113086f0006102c0820152679969aa87c76228006102e0820152677a62923607b4540061030082015267ec18d83e2a39080061032082015267c9ce74478217b00061034082015267a510b1325fd8b800610360820152679ad326d5c4e3c000610380820152676729bedff21288006103a08201526756b20c41934cf0006103c08201526759a16173e3fad0006103e082015267584f4233410df80061040082015267ab16a8a5894e70006104208201526767b431048b3a9c00610440820152673970fe542aaa5600610460820152671deac9e1f70f4000610480820152672d7746bee8df3e006104a0820152673175d5c48da012006104c082015267235bc31c4575dc006104e0820152672eb9abddcfe26800610500820152672757c4637b275c0061052082015267309f76606ae70e0061054082015267414cdf244123b00061056082015267210324cc5af9c4006105808201526753b03b62c2323c006105a08201526729a5a0b9f1e4ca006105c0820152675ca4b71a4f74b8006105e0820152673730fca04de57c006106008201526741924223df2368006106208201526723a4476d89fb9a00610640820152671f2f628fee5bb600610660820152672c681a12859b04006106808201526722f031387de200006106a08201526726881dcc8a0492006106c0820152672072657bf38a04006106e08201526715bb3ccfcad17300610700820152670c1bcff1b78f1b0061072082015267114e047b8bbb43006107408201526710c4fa581778e3006107608201526718d5c0b16bcd4800610780820152671e70a7ff71f7dd006107a08201526719184c3bd8014f006107c082015267251121e4e5dada006107e08201526713c55c109fa1250061080082015267283c319ba05e8e00610820820152672c142cb4c42c1000610840820152672281ca13a49a76006108608201526722687918b593da0061088082015267143e960cfa6f6e006108a08201526731190396206988006108c08201526718fbb7ba2c51bf006108e082015267109aa367f48b0b00610900820152673b9de456b2d5d6006109208201526732afbd0f86884e00610940820152672370f8c02196a0006109608201526717330031bc788b0061098082015267130c6e34918621006109a0820152675c03815848eb7c006109c0820152671d18d028c13968006109e0820152672340263959e30000610a008201526726bfbc18af57ca00610a20820152671e369492aedbf400610a40820152671b7525f7ef3b6d00610a608201526717332032dc3c9f00610a8082015267148949826d861b00610aa08201526714ba67836d5e1600610ac0820152671203cbed8a406b00610ae08201526723a81eebc5d3ae00610b008201526732f25195afb18800610b2082015267292a0c6f0283fc00610b4082015267259dd106aa0e9e00610b60820152671a6c93f780eb8100610b80820152671d93ee51ec43bb00610ba082015267372e8c8b39099a00610bc08201526739adc5dbb18aaa00610be0820152672ce3cde711af7a00610c00820152671f28aca84d90a300610c2082015267440d1971538bac00610c408201526716a64372fbe7fa00610c608201526715c428a4ea27ce00610c80820152671af981dfea8ed900610ca08201526718dc2c0ba4565b00610cc0820152671669e824ac869000610ce0820152671b50ba074240ff00610d00820152671babbe786287db00610d208201526710e0c950d51c4400610d4082015267109c4df1b56d3700610d608201526713eb897d9452b300610d80820152670e174af0d9adf980610da082015267129ae826b2a98800610dc0820152672b41feb51a3f8400610de08201526755026ea357429000610e0082015267397039daf33cfc00610e2082015267250a1b2b791e1c00610e40820152673e1f0d041a30d200610e60820152672f8bc1f7bbf6f000610e8082015267252e83b88d4eda00610ea0820152672224828f50e12400610ec0820152671aa12a025e7b9300610ee0820152670d69a190b911dc00610f008201526711c721a2e3c5b900610f2082015267193feb1729db8f00610f40820152670f7cf70e6066e800610f6082015267145c6df532a49100610f80820152670d608c688568a000610fa0820152670b7fb61324f30200610fc08201526706278fa3a92ca600610fe0820152670d00f36e080bb4006110008201526711efae468622e80061102082015267130ffcdb4790cd006110408201526712500d69c22cd30061106082015267104651ea392c6200611080820152671171f6dafbbf4a006110a0820152670f92cc43a6ae71006110c0820152670f9b5cac37d66b006110e082015267165cf257c0a65e006111008201526717542b985c52ef00611120820152671e6f43a2b7cab9006111408201526715f13fa04cd37b00611160820152670f9a9beb83032000611180820152670d6cad0b339d34006111a0820152670f4da653542756006111c082015267106680b0d48ddc006111e0820152671728f0062f9c21006112008201526720390fba46102c00611220820152672b83a91e0c45a000611240820152671b6f417bc6247d006112608201526710d10c2e0f0e53006112808201526712e2e4565d1fda006112a08201526715542deab3a95c006112c08201526718b372f0e4ee06006112e08201526715e024ac09f9950061130082015267129e7158ba524100611320820152671534ce3e19b49500611340820152670d80475364248600611360820152670dffb7fe474bb380611380820152670f7caf1cfbd49b006113a082015267181b5647e70529006113c08201526712e50f32b47830006113e08201526716ed0f4b40dc8d0061140082015267147899e4d0e37c00611420820152670d8a43e4d5efca00611440820152670cd05fd5271f7f00611460820152670f263eaa0305d380611480820152670c880edcebd541006114a0820152670e2df67ee1f1c1006114c0820152670bf021b3f9b4c0806114e0820152670c73e36a1ed2548061150082015267068dccaaf0c949006115208201526714feec368e21460061154082015267268f3a0c0479de00611560820152671c186d8fc1ab06006115808201526717aab1828e0968006115a08201526711c96f9a66905b006115c0820152670eb2b30a10e55d806115e0820152670ee685d85d593700611600820152670ba63a9a7a281c806116208201526712e702f6bf7218006116408201526710e9782e2d0bb3006116608201526712c87c4510b9490061168082015267132caad795928f006116a0820152670bf7fc97c891d1006116c08201526708a6eb8e325978006116e08201526709040090bd55c700611700820152670a62c70cafce6e806117208201526709c2a30571a4ac00611740820152670a4f75c3f346d8006117608201526713fb96efe77bb60061178082015267162e34bf70dc7a006117a0820152670ed010b0a7a982006117c08201526717679d08a958ac006117e0820152671c77be69139622006118008201526715c05cffedbdfe006118208201526716b4d544efccc600611840820152620030ce9060059060c362003d3a565b50604080516118608101825267e1282d8be0f3f800815267d8b3907d13bb6000602082015267e3127574851788009181019190915267cdbb2ab7424f6000606082015267d778dcc4b0eff000608082015267d89aed03923c800060a082015267f4028319fffc880060c082015267f6b995ae5aaed80060e082015267e0f844c41c59680061010082015267d44bee66981af00061012082015267cc88fc5c74fee00061014082015267da8779d50e59f00061016082015267dc11cbaf699f780061018082015267d6a924b3892f38006101a082015267d3e599613df6d8006101c082015267cdca2682440bb0006101e082015267d17b03b7ba30a80061020082015267dbe557f296ffb00061022082015267d773673d7f24900061024082015267d4778a281383800061026082015267f1a30d37a5c5400061028082015268012ab432d48d9130006102a0820152680123c2060c994980006102c082015268012c8b2c10a88be0006102e082015268011d4e4e028fa8d000610300820152680128259cd665370000610320820152680107b5b83ad624600061034082015267feecc7f215d980006103608201526801042794903ea23000610380820152680103187a31691ec0006103a082015267ecf7c699c2dbb0006103c082015267eccf1f0b21aa28006103e082015267f419cd0ee953c00061040082015267f500fe121a82f00061042082015267fbc6c754d696a80061044082015267f49cc9f563cfa00061046082015267f1af6ffc8fccc00061048082015267f2b6598c5b2f00006104a082015267e95ecff2a4af58006104c082015267eef13e43a10f90006104e082015267edd13052d88cb80061050082015267e9270408ce85080061052082015267f01f1da45fcf500061054082015267dc08ca396a1c080061056082015267d90da15731f5800061058082015267c162880c2c2f00006105a082015267c3392109471da0006105c082015267cfa430d463f790006105e082015267c1394e10ff2a380061060082015267cf596099c33ab80061062082015267cf2bb3e9fcd1c80061064082015267cf98921d49be080061066082015267d323ca0ae352b80061068082015267d0a48ceae15160006106a082015267d4423721b42e30006106c082015267cca137b9cae1f8006106e082015267cdd198cee034e00061070082015267cdc9766a4593e80061072082015267c78394c18653e80061074082015267c72f3c36b411680061076082015267ce7e6926f9d7300061078082015267c472d58bc15a98006107a082015267c3dd2c9ab3ac48006107c082015267cd64bd78b06dc0006107e082015267cf9a402309fb000061080082015267dcd2d888fb7ff00061082082015267d92c3adb54c3d80061084082015267d842b8c2d579480061086082015267cd938cc8fbf2480061088082015267caf2abcf72eae8006108a082015267db6ae62e190218006108c082015267d710cff2257f20006108e082015267d6417346b38c680061090082015267c959c7e263b3600061092082015267d1f51702073f200061094082015267c744b8340378280061096082015267c7f0ff40ee58c00061098082015267c814b653643c18006109a082015267afa7835267cb48006109c082015267af856159ff1d50006109e082015267ad0aaf91d4908800610a0082015267af4c5c61f175a000610a2082015267a68bf5ea0a227000610a4082015267a7e7acd512f23000610a6082015267ac77b44671ac5000610a8082015267afcead3b97b9d800610aa082015267afe625f8f0a06800610ac082015267b21635d98b4c1000610ae082015267bfd7f3daaee9c000610b0082015267c9f83b2e6b26e000610b2082015267c1004f31e8ee1000610b4082015267c8af3070fa137000610b6082015267beed96321f09c800610b8082015267c4b549a8581af800610ba082015267c9e9f206fb7b8800610bc082015267d5611a7b4d507000610be082015267c6ea06085ffdd800610c0082015267c7f96ee8ead66800610c2082015267cd3f22ebcf629000610c4082015267cb8be41806685000610c6082015267cb9cee73e52fd000610c8082015267ce717cac087ba800610ca082015267cb607648196eb000610cc082015267c49e94086936b000610ce082015267be7d298ea37b4800610d0082015267c7fcfd88219c1800610d2082015267c72e012d974e5800610d4082015267c6f96d9d2a709800610d6082015267c66f4ddf47aa4000610d8082015267c71d8dc36979d800610da082015267c675a756fab3f000610dc082015267d89966031dcbe000610de082015267d6397e2c33b13800610e0082015267e03ce24eec671000610e2082015267e0f5eb277b9b5800610e4082015267e65cd92245903800610e6082015267dc0b816bcdab4000610e8082015267e05eef50e3819000610ea082015267df1050beeae22800610ec082015267dad8f9fdaf3f6000610ee082015267d8d6bef1ac8f9000610f0082015267dd5e883d5b5bc800610f2082015267d205f9a688987800610f4082015267ceca0355e7840800610f6082015267d3c36833dbb40000610f8082015267cf7aa49048003000610fa082015267cfd9875c94c56000610fc082015267d12a3f01efd4b800610fe082015267ccea2f58dd0f800061100082015267cec566fc9273b00061102082015267cd3af03d76b9b80061104082015267c861925a670ae80061106082015267c7ce1d18cca7680061108082015267cc6f2dfe952ed8006110a082015267c930db789e0f80006110c082015267c91c77f96535d0006110e082015267c8932548756cf00061110082015267cd4f08a6dcf4e80061112082015267d00a4623d0fa980061114082015267cd250a7a28c7f00061116082015267ccd2087367aa180061118082015267cdc9fc1882ec30006111a082015267ca802a21299008006111c082015267c9f1e3d94ffa58006111e082015267c7f2d50944f5800061120082015267b956d4b590f6180061122082015267ae54592f987fc00061124082015267b21f2272329d780061126082015267b477b1f2d0dde00061128082015267b65a2e276e8a40006112a082015267b0690b86a1eb20006112c082015267ad48d74d5f8980006112e082015267b260b921359e000061130082015267ad6e03b2d444180061132082015267a7be7effad67a80061134082015267a82bb89db797b00061136082015267a977db49467bc00061138082015267a7d901039c5c48006113a082015267abd2f14cf38060006113c082015267a6e463c821ef30006113e082015267a1f8f75997b4d000611400820152679c7c5b4297b3e800611420820152679d258084abd6d00061144082015267a013cf49734d9800611460820152679e8be72effb5a800611480820152679f6b5948b22700006114a0820152679f705bea7d03a0006114c082015267a1581d747697b8006114e0820152679f961a6a590cb000611500820152679f00bcbb54e8f00061152082015267955c553cfaa290006115408201526786a9d0a7c9312000611560820152678a9b4d14e15f2800611580820152678b2f131f50ece0006115a0820152678e55555d57d3f0006115c0820152678f0c152bde34c0006115e0820152679266c77dc7ddb000611600820152678c9a8d355f9908006116208201526791e31eb6d3d98800611640820152679859a756830d3000611660820152679809f48882a4a0006116808201526791a6dc5a7add20006116a08201526794c044889e11f8006116c08201526791603408b71898006116e0820152678f0b6963ef00d800611700820152678ecfe81697e280006117208201526791fb4dd4dd9720006117408201526790a9db5c64c79800611760820152679dab84b659efa000611780820152679fd871064e73d8006117a082015267a0c3b318b982e8006117c082015267ab977d7d2a1e50006117e082015267a4c9904af7e5480061180082015267a057398af9b5a800611820820152679c8692757ce2000061184082015262003c569060069060c362003d3a565b50610105600755620d4abc6008556124c5600955604080516000815260208101918290525162003c8991600a9162003d83565b505062003e0a565b600080546001600160a01b038381166001600160a01b0319831681178455604051919092169283917f8be0079c531659141344cd1fd0a4f28419497f9722a3daafe3b4186f6b6457e09190a35050565b82805482825590600052602060002090810192821562003d28579160200282015b8281111562003d28578251829064ffffffffff1690559160200191906001019062003d02565b5062003d3692915062003dc1565b5090565b82805482825590600052602060002090810192821562003d28579160200282015b8281111562003d2857825182906001600160481b031690559160200191906001019062003d5b565b82805482825590600052602060002090810192821562003d28579160200282015b8281111562003d2857825182559160200191906001019062003da4565b5b8082111562003d36576000815560010162003dc2565b60006020828403121562003deb57600080fd5b81516001600160a01b038116811462003e0357600080fd5b9392505050565b610da88062003e1a6000396000f3fe608060405234801561001057600080fd5b506004361061010b5760003560e01c806385d21419116100a2578063bfd26f9011610071578063bfd26f9014610206578063f01ca1af14610219578063f2fde38b14610221578063f68dcdef14610234578063f7ef3aea1461024757600080fd5b806385d21419146101bd5780638da5cb5b146101d0578063a470c467146101eb578063ade017d2146101f357600080fd5b80635e615a6b116100de5780635e615a6b14610171578063715018a61461018f578063780ee704146101975780637e0c166a146101aa57600080fd5b80630a7bdd5c1461011057806333dac8d5146101255780635504be851461014b5780635bf217881461015e575b600080fd5b61012361011e366004610b77565b61025a565b005b610138610133366004610b77565b61028c565b6040519081526020015b60405180910390f35b610138610159366004610b90565b6102aa565b61012361016c366004610b77565b6102c6565b6101796102df565b6040516101429a99989796959493929190610bed565b610123610564565b6101236101a5366004610b77565b610578565b6101236101b8366004610b77565b610591565b6101236101cb366004610b77565b6105aa565b6000546040516001600160a01b039091168152602001610142565b6101236105c3565b610123610201366004610b77565b6109d9565b610123610214366004610b77565b6109f6565b610138610a13565b61012361022f366004610c9e565b610a73565b610123610242366004610b77565b610ab3565b610123610255366004610b77565b610ad0565b610262610ae9565b6004610273826402540be400610ce4565b8154600181018355600092835260209092209091015550565b60005b6402540be40082106102a657600a8204915061028f565b5090565b6000818311156102bc575060016102c0565b5060005b92915050565b6102ce610ae9565b6003610273826402540be400610ce4565b60608060608060608060008060006060600160026003600460056006600754600854600954600a8980548060200260200160405190810160405280929190818152602001828054801561035157602002820191906000526020600020905b81548152602001906001019080831161033d575b50505050509950888054806020026020016040519081016040528092919081815260200182805480156103a357602002820191906000526020600020905b81548152602001906001019080831161038f575b50505050509850878054806020026020016040519081016040528092919081815260200182805480156103f557602002820191906000526020600020905b8154815260200190600101908083116103e1575b505050505097508680548060200260200160405190810160405280929190818152602001828054801561044757602002820191906000526020600020905b815481526020019060010190808311610433575b505050505096508580548060200260200160405190810160405280929190818152602001828054801561049957602002820191906000526020600020905b815481526020019060010190808311610485575b50505050509550848054806020026020016040519081016040528092919081815260200182805480156104eb57602002820191906000526020600020905b8154815260200190600101908083116104d7575b505050505094508080548060200260200160405190810160405280929190818152602001828054801561053d57602002820191906000526020600020905b815481526020019060010190808311610529575b50505050509050995099509950995099509950995099509950995090919293949596979899565b61056c610ae9565b6105766000610b16565b565b610580610ae9565b6006610273826402540be400610ce4565b610599610ae9565b6001610273826402540be400610ce4565b6105b2610ae9565b6005610273826402540be400610ce4565b60005b600180546105d49190610cfb565b8110156109d657600060046000815481106105f1576105f1610d0e565b9060005260206000200154600360008154811061061057610610610d0e565b9060005260206000200154111561067057600460008154811061063557610635610d0e565b9060005260206000200154600360008154811061065457610654610d0e565b90600052602060002001546106699190610cfb565b90506106bb565b600360008154811061068457610684610d0e565b906000526020600020015460046000815481106106a3576106a3610d0e565b90600052602060002001546106b89190610cfb565b90505b600060016000815481106106d1576106d1610d0e565b906000526020600020015460026000815481106106f0576106f0610d0e565b9060005260206000200154111561075057600160008154811061071557610715610d0e565b9060005260206000200154600260008154811061073457610734610d0e565b90600052602060002001546107499190610cfb565b905061079b565b600260008154811061076457610764610d0e565b9060005260206000200154600160008154811061078357610783610d0e565b90600052602060002001546107989190610cfb565b90505b6000816000036107b157506402540be4006107ce565b816107c1846402540be400610ce4565b6107cb9190610d24565b90505b6000610814600286815481106107e6576107e6610d0e565b90600052602060002001546001878154811061080457610804610d0e565b90600052602060002001546102aa565b610823906402540be400610ce4565b620186a06009546108349190610d24565b61083f906002610ce4565b61271060075461084f9190610d24565b61085a906001610ce4565b64174876e8006108b860056108708b6001610d46565b8154811061088057610880610d0e565b906000526020600020015460058b8154811061089e5761089e610d0e565b90600052602060002001546108b39190610cfb565b610b66565b6108c29190610d24565b6108d1906402540be400610cfb565b6108dc906002610ce4565b64174876e80061092060066108f28c6001610d46565b8154811061090257610902610d0e565b906000526020600020015460068c8154811061089e5761089e610d0e565b61092a9190610d24565b610939906402540be400610cfb565b610944906002610ce4565b61094d8761028c565b610958906002610ce4565b6109629190610d46565b61096c9190610d46565b6109769190610d46565b6109809190610d46565b61098a9190610d46565b600a80546001810182556000919091527fc65a7bb8d6351c1cf70c95a316cc6a92839c986682d98bc35f958f4883f9d2a80155508392506109ce9150829050610d59565b9150506105c6565b50565b6109e1610ae9565b6109f0816402540be400610ce4565b60085550565b6109fe610ae9565b610a0d816402540be400610ce4565b60075550565b600080805b600a54811015610a5f57600a8181548110610a3557610a35610d0e565b906000526020600020015482610a4b9190610d46565b915080610a5781610d59565b915050610a18565b50600a54610a6d9082610d24565b91505090565b610a7b610ae9565b6001600160a01b038116610aaa57604051631e4fbdf760e01b8152600060048201526024015b60405180910390fd5b6109d681610b16565b610abb610ae9565b610aca816402540be400610ce4565b60095550565b610ad8610ae9565b6002610273826402540be400610ce4565b6000546001600160a01b031633146105765760405163118cdaa760e01b8152336004820152602401610aa1565b600080546001600160a01b038381166001600160a01b0319831681178455604051919092169283917f8be0079c531659141344cd1fd0a4f28419497f9722a3daafe3b4186f6b6457e09190a35050565b6000808212156102a6575060000390565b600060208284031215610b8957600080fd5b5035919050565b60008060408385031215610ba357600080fd5b50508035926020909101359150565b600081518084526020808501945080840160005b83811015610be257815187529582019590820190600101610bc6565b509495945050505050565b6000610140808352610c018184018e610bb2565b90508281036020840152610c15818d610bb2565b90508281036040840152610c29818c610bb2565b90508281036060840152610c3d818b610bb2565b90508281036080840152610c51818a610bb2565b905082810360a0840152610c658189610bb2565b90508660c08401528560e084015284610100840152828103610120840152610c8d8185610bb2565b9d9c50505050505050505050505050565b600060208284031215610cb057600080fd5b81356001600160a01b0381168114610cc757600080fd5b9392505050565b634e487b7160e01b600052601160045260246000fd5b80820281158282048414176102c0576102c0610cce565b818103818111156102c0576102c0610cce565b634e487b7160e01b600052603260045260246000fd5b600082610d4157634e487b7160e01b600052601260045260246000fd5b500490565b808201808211156102c0576102c0610cce565b600060018201610d6b57610d6b610cce565b506001019056fea26469706673582212202752c66235fe91c2beeb0e711e0a119404b476098209035990933aeb5d755d1c64736f6c63430008140033",
    "linkReferences": {}
  },
  "methodIdentifiers": {
    "addClose(uint256)": "f7ef3aea",
    "addHigh(uint256)": "5bf21788",
    "addLow(uint256)": "0a7bdd5c",
    "addMarketCap(uint256)": "780ee704",
    "addOpen(uint256)": "7e0c166a",
    "addVolume(uint256)": "85d21419",
    "check_size(uint256,uint256)": "5504be85",
    "generate_algo_array()": "a470c467",
    "getParams()": "5e615a6b",
    "normalize_between_zero_and_1e10(uint256)": "33dac8d5",
    "owner()": "8da5cb5b",
    "renounceOwnership()": "715018a6",
    "return_safeness_score()": "f01ca1af",
    "transferOwnership(address)": "f2fde38b",
    "update_github_commits(uint256)": "f68dcdef",
    "update_markets(uint256)": "bfd26f90",
    "update_twitter_followers(uint256)": "ade017d2"
  },
  "id": 2
}