{
  "abi": [
    {
      "inputs": [
        {
          "internalType": "address",
          "name": "initialOwner",
          "type": "address"
        }
      ],
      "stateMutability": "nonpayable",
      "type": "constructor"
    },
    {
      "inputs": [
        {
          "internalType": "address",
          "name": "owner",
          "type": "address"
        }
      ],
      "name": "OwnableInvalidOwner",
      "type": "error"
    },
    {
      "inputs": [
        {
          "internalType": "address",
          "name": "account",
          "type": "address"
        }
      ],
      "name": "OwnableUnauthorizedAccount",
      "type": "error"
    },
    {
      "anonymous": false,
      "inputs": [
        {
          "indexed": true,
          "internalType": "address",
          "name": "previousOwner",
          "type": "address"
        },
        {
          "indexed": true,
          "internalType": "address",
          "name": "newOwner",
          "type": "address"
        }
      ],
      "name": "OwnershipTransferred",
      "type": "event"
    },
    {
      "anonymous": false,
      "inputs": [
        {
          "indexed": false,
          "internalType": "uint256",
          "name": "item",
          "type": "uint256"
        }
      ],
      "name": "close_Added",
      "type": "event"
    },
    {
      "anonymous": false,
      "inputs": [
        {
          "indexed": false,
          "internalType": "uint256",
          "name": "item",
          "type": "uint256"
        }
      ],
      "name": "github_commits_changed",
      "type": "event"
    },
    {
      "anonymous": false,
      "inputs": [
        {
          "indexed": false,
          "internalType": "uint256",
          "name": "item",
          "type": "uint256"
        }
      ],
      "name": "high_Added",
      "type": "event"
    },
    {
      "anonymous": false,
      "inputs": [
        {
          "indexed": false,
          "internalType": "uint256",
          "name": "item",
          "type": "uint256"
        }
      ],
      "name": "low_Added",
      "type": "event"
    },
    {
      "anonymous": false,
      "inputs": [
        {
          "indexed": false,
          "internalType": "uint256",
          "name": "item",
          "type": "uint256"
        }
      ],
      "name": "marketCap_Added",
      "type": "event"
    },
    {
      "anonymous": false,
      "inputs": [
        {
          "indexed": false,
          "internalType": "uint256",
          "name": "item",
          "type": "uint256"
        }
      ],
      "name": "markets_changed",
      "type": "event"
    },
    {
      "anonymous": false,
      "inputs": [
        {
          "indexed": false,
          "internalType": "uint256",
          "name": "item",
          "type": "uint256"
        }
      ],
      "name": "open_Added",
      "type": "event"
    },
    {
      "anonymous": false,
      "inputs": [
        {
          "indexed": false,
          "internalType": "uint256",
          "name": "item",
          "type": "uint256"
        }
      ],
      "name": "twitter_followers_changed",
      "type": "event"
    },
    {
      "anonymous": false,
      "inputs": [
        {
          "indexed": false,
          "internalType": "uint256",
          "name": "item",
          "type": "uint256"
        }
      ],
      "name": "volume_Added",
      "type": "event"
    },
    {
      "inputs": [
        {
          "internalType": "uint256",
          "name": "item",
          "type": "uint256"
        }
      ],
      "name": "addClose",
      "outputs": [],
      "stateMutability": "nonpayable",
      "type": "function"
    },
    {
      "inputs": [
        {
          "internalType": "uint256",
          "name": "item",
          "type": "uint256"
        }
      ],
      "name": "addHigh",
      "outputs": [],
      "stateMutability": "nonpayable",
      "type": "function"
    },
    {
      "inputs": [
        {
          "internalType": "uint256",
          "name": "item",
          "type": "uint256"
        }
      ],
      "name": "addLow",
      "outputs": [],
      "stateMutability": "nonpayable",
      "type": "function"
    },
    {
      "inputs": [
        {
          "internalType": "uint256",
          "name": "item",
          "type": "uint256"
        }
      ],
      "name": "addMarketCap",
      "outputs": [],
      "stateMutability": "nonpayable",
      "type": "function"
    },
    {
      "inputs": [
        {
          "internalType": "uint256",
          "name": "item",
          "type": "uint256"
        }
      ],
      "name": "addOpen",
      "outputs": [],
      "stateMutability": "nonpayable",
      "type": "function"
    },
    {
      "inputs": [
        {
          "internalType": "uint256",
          "name": "item",
          "type": "uint256"
        }
      ],
      "name": "addVolume",
      "outputs": [],
      "stateMutability": "nonpayable",
      "type": "function"
    },
    {
      "inputs": [
        {
          "internalType": "uint256",
          "name": "value1",
          "type": "uint256"
        },
        {
          "internalType": "uint256",
          "name": "value2",
          "type": "uint256"
        }
      ],
      "name": "check_size",
      "outputs": [
        {
          "internalType": "uint256",
          "name": "",
          "type": "uint256"
        }
      ],
      "stateMutability": "pure",
      "type": "function"
    },
    {
      "inputs": [],
      "name": "generate_algo_array",
      "outputs": [],
      "stateMutability": "payable",
      "type": "function"
    },
    {
      "inputs": [],
      "name": "getClose",
      "outputs": [
        {
          "internalType": "uint256[]",
          "name": "",
          "type": "uint256[]"
        }
      ],
      "stateMutability": "view",
      "type": "function"
    },
    {
      "inputs": [],
      "name": "getHigh",
      "outputs": [
        {
          "internalType": "uint256[]",
          "name": "",
          "type": "uint256[]"
        }
      ],
      "stateMutability": "view",
      "type": "function"
    },
    {
      "inputs": [],
      "name": "getLow",
      "outputs": [
        {
          "internalType": "uint256[]",
          "name": "",
          "type": "uint256[]"
        }
      ],
      "stateMutability": "view",
      "type": "function"
    },
    {
      "inputs": [],
      "name": "getMarketCap",
      "outputs": [
        {
          "internalType": "uint256[]",
          "name": "",
          "type": "uint256[]"
        }
      ],
      "stateMutability": "view",
      "type": "function"
    },
    {
      "inputs": [],
      "name": "getMarkets",
      "outputs": [
        {
          "internalType": "uint256",
          "name": "",
          "type": "uint256"
        }
      ],
      "stateMutability": "view",
      "type": "function"
    },
    {
      "inputs": [],
      "name": "getOpen",
      "outputs": [
        {
          "internalType": "uint256[]",
          "name": "",
          "type": "uint256[]"
        }
      ],
      "stateMutability": "view",
      "type": "function"
    },
    {
      "inputs": [],
      "name": "getTwitterFollowers",
      "outputs": [
        {
          "internalType": "uint256",
          "name": "",
          "type": "uint256"
        }
      ],
      "stateMutability": "view",
      "type": "function"
    },
    {
      "inputs": [],
      "name": "getVolume",
      "outputs": [
        {
          "internalType": "uint256[]",
          "name": "",
          "type": "uint256[]"
        }
      ],
      "stateMutability": "view",
      "type": "function"
    },
    {
      "inputs": [],
      "name": "get_algo_array",
      "outputs": [
        {
          "internalType": "uint256[]",
          "name": "",
          "type": "uint256[]"
        }
      ],
      "stateMutability": "view",
      "type": "function"
    },
    {
      "inputs": [],
      "name": "get_github_commits",
      "outputs": [
        {
          "internalType": "uint256",
          "name": "",
          "type": "uint256"
        }
      ],
      "stateMutability": "view",
      "type": "function"
    },
    {
      "inputs": [
        {
          "internalType": "uint256",
          "name": "value",
          "type": "uint256"
        }
      ],
      "name": "normalize_between_zero_and_1e10",
      "outputs": [
        {
          "internalType": "uint256",
          "name": "",
          "type": "uint256"
        }
      ],
      "stateMutability": "pure",
      "type": "function"
    },
    {
      "inputs": [],
      "name": "owner",
      "outputs": [
        {
          "internalType": "address",
          "name": "",
          "type": "address"
        }
      ],
      "stateMutability": "view",
      "type": "function"
    },
    {
      "inputs": [],
      "name": "renounceOwnership",
      "outputs": [],
      "stateMutability": "nonpayable",
      "type": "function"
    },
    {
      "inputs": [],
      "name": "return_safeness_score",
      "outputs": [
        {
          "internalType": "uint256",
          "name": "",
          "type": "uint256"
        }
      ],
      "stateMutability": "view",
      "type": "function"
    },
    {
      "inputs": [
        {
          "internalType": "address",
          "name": "newOwner",
          "type": "address"
        }
      ],
      "name": "transferOwnership",
      "outputs": [],
      "stateMutability": "nonpayable",
      "type": "function"
    },
    {
      "inputs": [
        {
          "internalType": "uint256",
          "name": "item",
          "type": "uint256"
        }
      ],
      "name": "update_github_commits",
      "outputs": [],
      "stateMutability": "nonpayable",
      "type": "function"
    },
    {
      "inputs": [
        {
          "internalType": "uint256",
          "name": "item",
          "type": "uint256"
        }
      ],
      "name": "update_markets",
      "outputs": [],
      "stateMutability": "nonpayable",
      "type": "function"
    },
    {
      "inputs": [
        {
          "internalType": "uint256",
          "name": "item",
          "type": "uint256"
        }
      ],
      "name": "update_twitter_followers",
      "outputs": [],
      "stateMutability": "nonpayable",
      "type": "function"
    }
  ],
  "bytecode": {
    "object": "0x60806040523480156200001157600080fd5b50604051620013183803806200131883398101604081905262000034916200021f565b806001600160a01b0381166200006457604051631e4fbdf760e01b81526000600482015260240160405180910390fd5b6200006f8162000168565b5060408051600081526020810191829052516200008f91600191620001b8565b506040805160008152602081019182905251620000af91600291620001b8565b506040805160008152602081019182905251620000cf91600391620001b8565b506040805160008152602081019182905251620000ef91600491620001b8565b5060408051600081526020810191829052516200010f91600591620001b8565b5060408051600081526020810191829052516200012f91600691620001b8565b50600060078190556008819055600981905560408051918252602082019081905290516200016091600a91620001b8565b505062000251565b600080546001600160a01b038381166001600160a01b0319831681178455604051919092169283917f8be0079c531659141344cd1fd0a4f28419497f9722a3daafe3b4186f6b6457e09190a35050565b828054828255906000526020600020908101928215620001f6579160200282015b82811115620001f6578251825591602001919060010190620001d9565b506200020492915062000208565b5090565b5b8082111562000204576000815560010162000209565b6000602082840312156200023257600080fd5b81516001600160a01b03811681146200024a57600080fd5b9392505050565b6110b780620002616000396000f3fe6080604052600436106101815760003560e01c8063ade017d2116100d1578063ca71005c1161008a578063f2fde38b11610064578063f2fde38b146103df578063f68dcdef146103ff578063f7ef3aea1461041f578063f931d3bb1461043f57600080fd5b8063ca71005c146103a0578063ec2c9016146103b5578063f01ca1af146103ca57600080fd5b8063ade017d21461030c578063b37f2e2b1461032c578063bfd26f9014610341578063c451436e14610361578063c67058a614610376578063c67bbc241461038b57600080fd5b8063780ee7041161013e5780638da5cb5b116101185780638da5cb5b146102b257806390825c28146102da578063a3af3001146102ef578063a470c4671461030457600080fd5b8063780ee704146102525780637e0c166a1461027257806385d214191461029257600080fd5b80630a7bdd5c1461018657806333dac8d5146101a8578063353ddc8e146101db5780635504be85146101fd5780635bf217881461021d578063715018a61461023d575b600080fd5b34801561019257600080fd5b506101a66101a1366004610f2e565b610454565b005b3480156101b457600080fd5b506101c86101c3366004610f2e565b6104b7565b6040519081526020015b60405180910390f35b3480156101e757600080fd5b506101f06104d5565b6040516101d29190610f47565b34801561020957600080fd5b506101c8610218366004610f8b565b61052d565b34801561022957600080fd5b506101a6610238366004610f2e565b610549565b34801561024957600080fd5b506101a66105a5565b34801561025e57600080fd5b506101a661026d366004610f2e565b6105b9565b34801561027e57600080fd5b506101a661028d366004610f2e565b610615565b34801561029e57600080fd5b506101a66102ad366004610f2e565b610671565b3480156102be57600080fd5b506000546040516001600160a01b0390911681526020016101d2565b3480156102e657600080fd5b506101f06106cd565b3480156102fb57600080fd5b506101f0610723565b6101a6610779565b34801561031857600080fd5b506101a6610327366004610f2e565b610b6e565b34801561033857600080fd5b506008546101c8565b34801561034d57600080fd5b506101a661035c366004610f2e565b610bb8565b34801561036d57600080fd5b506101f0610c02565b34801561038257600080fd5b506101f0610c58565b34801561039757600080fd5b506101f0610cae565b3480156103ac57600080fd5b506009546101c8565b3480156103c157600080fd5b506007546101c8565b3480156103d657600080fd5b506101c8610d04565b3480156103eb57600080fd5b506101a66103fa366004610fad565b610d64565b34801561040b57600080fd5b506101a661041a366004610f2e565b610da4565b34801561042b57600080fd5b506101a661043a366004610f2e565b610dee565b34801561044b57600080fd5b506101f0610e4a565b61045c610ea0565b600461046d826402540be400610ff3565b8154600181018355600092835260209283902001556040518281527f85b39aff27985426ca65edce1771690b4d8aaa098414c6fa55aa5429fdb2300a91015b60405180910390a150565b60005b6402540be40082106104d157600a820491506104ba565b5090565b6060600180548060200260200160405190810160405280929190818152602001828054801561052357602002820191906000526020600020905b81548152602001906001019080831161050f575b5050505050905090565b60008183111561053f57506001610543565b5060005b92915050565b610551610ea0565b6003610562826402540be400610ff3565b8154600181018355600092835260209283902001556040518281527f70c8af1ec747a150c776109c8de7573c363bca886d630c26a09b537b057b122291016104ac565b6105ad610ea0565b6105b76000610ecd565b565b6105c1610ea0565b60066105d2826402540be400610ff3565b8154600181018355600092835260209283902001556040518281527f08eb041a86e31c1cdb230cae40889dce5d36ddb6b31bc9ef536b239df978574591016104ac565b61061d610ea0565b600161062e826402540be400610ff3565b8154600181018355600092835260209283902001556040518281527f2cf20980a56c3c35cf18c26c6d34d7dc7ad1823756080516c3f076da768dbed391016104ac565b610679610ea0565b600561068a826402540be400610ff3565b8154600181018355600092835260209283902001556040518281527f0e25c350a990932af2a969ceda49f3d76d6e3397c10b20f80009aa7c6935147991016104ac565b60606006805480602002602001604051908101604052809291908181526020018280548015610523576020028201919060005260206000209081548152602001906001019080831161050f575050505050905090565b60606004805480602002602001604051908101604052809291908181526020018280548015610523576020028201919060005260206000209081548152602001906001019080831161050f575050505050905090565b60005b6001805461078a919061100a565b811015610b6b57600060046000815481106107a7576107a761101d565b906000526020600020015460036000815481106107c6576107c661101d565b906000526020600020015411156108265760046000815481106107eb576107eb61101d565b9060005260206000200154600360008154811061080a5761080a61101d565b906000526020600020015461081f919061100a565b9050610871565b600360008154811061083a5761083a61101d565b906000526020600020015460046000815481106108595761085961101d565b906000526020600020015461086e919061100a565b90505b600060016000815481106108875761088761101d565b906000526020600020015460026000815481106108a6576108a661101d565b906000526020600020015411156109065760016000815481106108cb576108cb61101d565b906000526020600020015460026000815481106108ea576108ea61101d565b90600052602060002001546108ff919061100a565b9050610951565b600260008154811061091a5761091a61101d565b906000526020600020015460016000815481106109395761093961101d565b906000526020600020015461094e919061100a565b90505b6000610997600285815481106109695761096961101d565b9060005260206000200154600186815481106109875761098761101d565b906000526020600020015461052d565b6109a6906402540be400610ff3565b620186a06009546109b79190611033565b6109c2906002610ff3565b6127106007546109d29190611033565b6109dd906001610ff3565b64174876e800610a3b60056109f38a6001611055565b81548110610a0357610a0361101d565b906000526020600020015460058a81548110610a2157610a2161101d565b9060005260206000200154610a36919061100a565b610f1d565b610a459190611033565b610a54906402540be40061100a565b610a5f906002610ff3565b64174876e800610aa36006610a758b6001611055565b81548110610a8557610a8561101d565b906000526020600020015460068b81548110610a2157610a2161101d565b610aad9190611033565b610abc906402540be40061100a565b610ac7906002610ff3565b610ae487610ada8a6402540be400610ff3565b6101c39190611033565b610aef906002610ff3565b610af99190611055565b610b039190611055565b610b0d9190611055565b610b179190611055565b610b219190611055565b600a80546001810182556000919091527fc65a7bb8d6351c1cf70c95a316cc6a92839c986682d98bc35f958f4883f9d2a8015550829150610b63905081611068565b91505061077c565b50565b610b76610ea0565b610b85816402540be400610ff3565b6008556040518181527fbe5d96f89fcc0a989f2b71300d6a9cbec44a2e107d436a9ec0ac5b59a3cd2bed906020016104ac565b610bc0610ea0565b610bcf816402540be400610ff3565b6007556040518181527f30f678af4708563916c60550cc291ae75715746fccaf0b8244c14fcc86af6c81906020016104ac565b60606002805480602002602001604051908101604052809291908181526020018280548015610523576020028201919060005260206000209081548152602001906001019080831161050f575050505050905090565b60606003805480602002602001604051908101604052809291908181526020018280548015610523576020028201919060005260206000209081548152602001906001019080831161050f575050505050905090565b60606005805480602002602001604051908101604052809291908181526020018280548015610523576020028201919060005260206000209081548152602001906001019080831161050f575050505050905090565b600080805b600a54811015610d5057600a8181548110610d2657610d2661101d565b906000526020600020015482610d3c9190611055565b915080610d4881611068565b915050610d09565b50600a54610d5e9082611033565b91505090565b610d6c610ea0565b6001600160a01b038116610d9b57604051631e4fbdf760e01b8152600060048201526024015b60405180910390fd5b610b6b81610ecd565b610dac610ea0565b610dbb816402540be400610ff3565b6009556040518181527fd14f6b61d75001a0576ccf62cae5c9e498b86de7788347ae85aa6d5059869d0b906020016104ac565b610df6610ea0565b6002610e07826402540be400610ff3565b8154600181018355600092835260209283902001556040518281527fdef1cb2c263b5d8b8c6d5203a20ddc66663c747952436a02c5940db8dc59cdb291016104ac565b6060600a805480602002602001604051908101604052809291908181526020018280548015610523576020028201919060005260206000209081548152602001906001019080831161050f575050505050905090565b6000546001600160a01b031633146105b75760405163118cdaa760e01b8152336004820152602401610d92565b600080546001600160a01b038381166001600160a01b0319831681178455604051919092169283917f8be0079c531659141344cd1fd0a4f28419497f9722a3daafe3b4186f6b6457e09190a35050565b6000808212156104d1575060000390565b600060208284031215610f4057600080fd5b5035919050565b6020808252825182820181905260009190848201906040850190845b81811015610f7f57835183529284019291840191600101610f63565b50909695505050505050565b60008060408385031215610f9e57600080fd5b50508035926020909101359150565b600060208284031215610fbf57600080fd5b81356001600160a01b0381168114610fd657600080fd5b9392505050565b634e487b7160e01b600052601160045260246000fd5b808202811582820484141761054357610543610fdd565b8181038181111561054357610543610fdd565b634e487b7160e01b600052603260045260246000fd5b60008261105057634e487b7160e01b600052601260045260246000fd5b500490565b8082018082111561054357610543610fdd565b60006001820161107a5761107a610fdd565b506001019056fea2646970667358221220c6d30371fe479b44baa80781c9beb9aecc01e508fb7410749e000e63c4fc412164736f6c63430008140033",
    "linkReferences": {}
  },
  "methodIdentifiers": {
    "addClose(uint256)": "f7ef3aea",
    "addHigh(uint256)": "5bf21788",
    "addLow(uint256)": "0a7bdd5c",
    "addMarketCap(uint256)": "780ee704",
    "addOpen(uint256)": "7e0c166a",
    "addVolume(uint256)": "85d21419",
    "check_size(uint256,uint256)": "5504be85",
    "generate_algo_array()": "a470c467",
    "getClose()": "c451436e",
    "getHigh()": "c67058a6",
    "getLow()": "a3af3001",
    "getMarketCap()": "90825c28",
    "getMarkets()": "ec2c9016",
    "getOpen()": "353ddc8e",
    "getTwitterFollowers()": "b37f2e2b",
    "getVolume()": "c67bbc24",
    "get_algo_array()": "f931d3bb",
    "get_github_commits()": "ca71005c",
    "normalize_between_zero_and_1e10(uint256)": "33dac8d5",
    "owner()": "8da5cb5b",
    "renounceOwnership()": "715018a6",
    "return_safeness_score()": "f01ca1af",
    "transferOwnership(address)": "f2fde38b",
    "update_github_commits(uint256)": "f68dcdef",
    "update_markets(uint256)": "bfd26f90",
    "update_twitter_followers(uint256)": "ade017d2"
  },
  "id": 22
}